{
  "contractName": "Market",
  "abi": [
    {
      "inputs": [],
      "name": "itemCount",
      "outputs": [
        {
          "internalType": "uint256",
          "name": "",
          "type": "uint256"
        }
      ],
      "stateMutability": "view",
      "type": "function",
      "constant": true
    },
    {
      "inputs": [
        {
          "internalType": "uint256",
          "name": "",
          "type": "uint256"
        }
      ],
      "name": "items",
      "outputs": [
        {
          "internalType": "uint256",
          "name": "id",
          "type": "uint256"
        },
        {
          "internalType": "address",
          "name": "owner",
          "type": "address"
        },
        {
          "internalType": "address payable",
          "name": "buyer",
          "type": "address"
        },
        {
          "internalType": "string",
          "name": "name",
          "type": "string"
        },
        {
          "internalType": "string",
          "name": "description",
          "type": "string"
        },
        {
          "internalType": "uint256",
          "name": "price",
          "type": "uint256"
        },
        {
          "internalType": "bool",
          "name": "sold",
          "type": "bool"
        }
      ],
      "stateMutability": "view",
      "type": "function",
      "constant": true
    },
    {
      "inputs": [
        {
          "internalType": "address",
          "name": "",
          "type": "address"
        },
        {
          "internalType": "uint256",
          "name": "",
          "type": "uint256"
        }
      ],
      "name": "ownedItems",
      "outputs": [
        {
          "internalType": "uint256",
          "name": "",
          "type": "uint256"
        }
      ],
      "stateMutability": "view",
      "type": "function",
      "constant": true
    },
    {
      "inputs": [
        {
          "internalType": "string",
          "name": "_name",
          "type": "string"
        },
        {
          "internalType": "string",
          "name": "_description",
          "type": "string"
        },
        {
          "internalType": "uint256",
          "name": "_price",
          "type": "uint256"
        }
      ],
      "name": "listItem",
      "outputs": [],
      "stateMutability": "nonpayable",
      "type": "function"
    },
    {
      "inputs": [
        {
          "internalType": "uint256",
          "name": "_id",
          "type": "uint256"
        },
        {
          "internalType": "address",
          "name": "_newOwner",
          "type": "address"
        }
      ],
      "name": "_transferItem",
      "outputs": [],
      "stateMutability": "nonpayable",
      "type": "function"
    },
    {
      "inputs": [
        {
          "internalType": "uint256",
          "name": "_id",
          "type": "uint256"
        }
      ],
      "name": "getItem",
      "outputs": [
        {
          "internalType": "uint256",
          "name": "",
          "type": "uint256"
        },
        {
          "internalType": "address",
          "name": "",
          "type": "address"
        },
        {
          "internalType": "address",
          "name": "",
          "type": "address"
        },
        {
          "internalType": "string",
          "name": "",
          "type": "string"
        },
        {
          "internalType": "string",
          "name": "",
          "type": "string"
        },
        {
          "internalType": "uint256",
          "name": "",
          "type": "uint256"
        },
        {
          "internalType": "bool",
          "name": "",
          "type": "bool"
        }
      ],
      "stateMutability": "view",
      "type": "function",
      "constant": true
    },
    {
      "inputs": [
        {
          "internalType": "uint256",
          "name": "_id",
          "type": "uint256"
        }
      ],
      "name": "buyItem",
      "outputs": [],
      "stateMutability": "payable",
      "type": "function",
      "payable": true
    },
    {
      "inputs": [
        {
          "internalType": "address",
          "name": "_owner",
          "type": "address"
        }
      ],
      "name": "getOwnedItems",
      "outputs": [
        {
          "internalType": "uint256[]",
          "name": "",
          "type": "uint256[]"
        }
      ],
      "stateMutability": "view",
      "type": "function",
      "constant": true
    }
  ],
  "bytecode": "0x60806040526000805534801561001457600080fd5b50611a4e806100246000396000f3fe60806040526004361061007b5760003560e01c8063bfb231d21161004e578063bfb231d214610154578063c0b25cc314610197578063e417dc35146101c0578063e7fb74c7146101fd5761007b565b80630562021c146100805780633129e773146100a957806342846534146100ec5780636bfb0d0114610129575b600080fd5b34801561008c57600080fd5b506100a760048036038101906100a291906110c4565b610219565b005b3480156100b557600080fd5b506100d060048036038101906100cb9190611143565b610457565b6040516100e397969594939291906116ce565b60405180910390f35b3480156100f857600080fd5b50610113600480360381019061010e9190611088565b610619565b6040516101209190611636565b60405180910390f35b34801561013557600080fd5b5061013e61064a565b60405161014b9190611636565b60405180910390f35b34801561016057600080fd5b5061017b60048036038101906101769190611143565b610650565b60405161018e9796959493929190611651565b60405180910390f35b3480156101a357600080fd5b506101be60048036038101906101b9919061116c565b6107ef565b005b3480156101cc57600080fd5b506101e760048036038101906101e2919061105f565b6109e0565b6040516101f49190611514565b60405180910390f35b61021760048036038101906102129190611143565b610a77565b005b6000811161025c576040517f08c379a000000000000000000000000000000000000000000000000000000000815260040161025390611616565b60405180910390fd5b60008081548092919061026e90611903565b91905055506040518060e0016040528060005481526020013373ffffffffffffffffffffffffffffffffffffffff1681526020013373ffffffffffffffffffffffffffffffffffffffff1681526020018481526020018381526020018281526020016000151581525060016000805481526020019081526020016000206000820151816000015560208201518160010160006101000a81548173ffffffffffffffffffffffffffffffffffffffff021916908373ffffffffffffffffffffffffffffffffffffffff16021790555060408201518160020160006101000a81548173ffffffffffffffffffffffffffffffffffffffff021916908373ffffffffffffffffffffffffffffffffffffffff160217905550606082015181600301908051906020019061039f929190610f2a565b5060808201518160040190805190602001906103bc929190610f2a565b5060a0820151816005015560c08201518160060160006101000a81548160ff021916908315150217905550905050600260003373ffffffffffffffffffffffffffffffffffffffff1673ffffffffffffffffffffffffffffffffffffffff1681526020019081526020016000206000549080600181540180825580915050600190039060005260206000200160009091909190915055505050565b60008060006060806000806000600160008a8152602001908152602001600020905080600001548160010160009054906101000a900473ffffffffffffffffffffffffffffffffffffffff168260020160009054906101000a900473ffffffffffffffffffffffffffffffffffffffff16836003018460040185600501548660060160009054906101000a900460ff168380546104f3906118d1565b80601f016020809104026020016040519081016040528092919081815260200182805461051f906118d1565b801561056c5780601f106105415761010080835404028352916020019161056c565b820191906000526020600020905b81548152906001019060200180831161054f57829003601f168201915b5050505050935082805461057f906118d1565b80601f01602080910402602001604051908101604052809291908181526020018280546105ab906118d1565b80156105f85780601f106105cd576101008083540402835291602001916105f8565b820191906000526020600020905b8154815290600101906020018083116105db57829003601f168201915b50505050509250975097509750975097509750975050919395979092949650565b6002602052816000526040600020818154811061063557600080fd5b90600052602060002001600091509150505481565b60005481565b60016020528060005260406000206000915090508060000154908060010160009054906101000a900473ffffffffffffffffffffffffffffffffffffffff16908060020160009054906101000a900473ffffffffffffffffffffffffffffffffffffffff16908060030180546106c5906118d1565b80601f01602080910402602001604051908101604052809291908181526020018280546106f1906118d1565b801561073e5780601f106107135761010080835404028352916020019161073e565b820191906000526020600020905b81548152906001019060200180831161072157829003601f168201915b505050505090806004018054610753906118d1565b80601f016020809104026020016040519081016040528092919081815260200182805461077f906118d1565b80156107cc5780601f106107a1576101008083540402835291602001916107cc565b820191906000526020600020905b8154815290600101906020018083116107af57829003601f168201915b5050505050908060050154908060060160009054906101000a900460ff16905087565b6000600160008481526020019081526020016000209050600081600001541180156108205750600054816000015411155b61085f576040517f08c379a0000000000000000000000000000000000000000000000000000000008152600401610856906115f6565b60405180910390fd5b8060010160009054906101000a900473ffffffffffffffffffffffffffffffffffffffff1673ffffffffffffffffffffffffffffffffffffffff163373ffffffffffffffffffffffffffffffffffffffff16146108f1576040517f08c379a00000000000000000000000000000000000000000000000000000000081526004016108e8906115b6565b60405180910390fd5b600073ffffffffffffffffffffffffffffffffffffffff168273ffffffffffffffffffffffffffffffffffffffff161415610961576040517f08c379a000000000000000000000000000000000000000000000000000000000815260040161095890611536565b60405180910390fd5b3373ffffffffffffffffffffffffffffffffffffffff168273ffffffffffffffffffffffffffffffffffffffff1614156109d0576040517f08c379a00000000000000000000000000000000000000000000000000000000081526004016109c7906115d6565b60405180910390fd5b6109db833384610cc5565b505050565b6060600260008373ffffffffffffffffffffffffffffffffffffffff1673ffffffffffffffffffffffffffffffffffffffff168152602001908152602001600020805480602002602001604051908101604052809291908181526020018280548015610a6b57602002820191906000526020600020905b815481526020019060010190808311610a57575b50505050509050919050565b6000600160008381526020019081526020016000209050600082118015610aa057506000548211155b610adf576040517f08c379a0000000000000000000000000000000000000000000000000000000008152600401610ad6906115f6565b60405180910390fd5b8060060160009054906101000a900460ff1615610b31576040517f08c379a0000000000000000000000000000000000000000000000000000000008152600401610b2890611596565b60405180910390fd5b80600501543414610b77576040517f08c379a0000000000000000000000000000000000000000000000000000000008152600401610b6e90611576565b60405180910390fd5b8060020160009054906101000a900473ffffffffffffffffffffffffffffffffffffffff1673ffffffffffffffffffffffffffffffffffffffff163373ffffffffffffffffffffffffffffffffffffffff161415610c0a576040517f08c379a0000000000000000000000000000000000000000000000000000000008152600401610c0190611556565b60405180910390fd5b60018160060160006101000a81548160ff0219169083151502179055508060020160009054906101000a900473ffffffffffffffffffffffffffffffffffffffff1673ffffffffffffffffffffffffffffffffffffffff166108fc349081150290604051600060405180830381858888f19350505050158015610c91573d6000803e3d6000fd5b50610cc1828260020160009054906101000a900473ffffffffffffffffffffffffffffffffffffffff1633610cc5565b5050565b6000600160008581526020019081526020016000209050818160010160006101000a81548173ffffffffffffffffffffffffffffffffffffffff021916908373ffffffffffffffffffffffffffffffffffffffff1602179055506000600260008573ffffffffffffffffffffffffffffffffffffffff1673ffffffffffffffffffffffffffffffffffffffff168152602001908152602001600020905060005b8180549050811015610ebc5785828281548110610dab577f4e487b7100000000000000000000000000000000000000000000000000000000600052603260045260246000fd5b90600052602060002001541415610ea9578160018380549050610dce9190611801565b81548110610e05577f4e487b7100000000000000000000000000000000000000000000000000000000600052603260045260246000fd5b9060005260206000200154828281548110610e49577f4e487b7100000000000000000000000000000000000000000000000000000000600052603260045260246000fd5b906000526020600020018190555081805480610e8e577f4e487b7100000000000000000000000000000000000000000000000000000000600052603160045260246000fd5b60019003818190600052602060002001600090559055610ebc565b8080610eb490611903565b915050610d65565b50600260008473ffffffffffffffffffffffffffffffffffffffff1673ffffffffffffffffffffffffffffffffffffffff1681526020019081526020016000208590806001815401808255809150506001900390600052602060002001600090919091909150555050505050565b828054610f36906118d1565b90600052602060002090601f016020900481019282610f585760008555610f9f565b82601f10610f7157805160ff1916838001178555610f9f565b82800160010185558215610f9f579182015b82811115610f9e578251825591602001919060010190610f83565b5b509050610fac9190610fb0565b5090565b5b80821115610fc9576000816000905550600101610fb1565b5090565b6000610fe0610fdb8461177c565b61174b565b905082815260208101848484011115610ff857600080fd5b61100384828561188f565b509392505050565b60008135905061101a816119ea565b92915050565b600082601f83011261103157600080fd5b8135611041848260208601610fcd565b91505092915050565b60008135905061105981611a01565b92915050565b60006020828403121561107157600080fd5b600061107f8482850161100b565b91505092915050565b6000806040838503121561109b57600080fd5b60006110a98582860161100b565b92505060206110ba8582860161104a565b9150509250929050565b6000806000606084860312156110d957600080fd5b600084013567ffffffffffffffff8111156110f357600080fd5b6110ff86828701611020565b935050602084013567ffffffffffffffff81111561111c57600080fd5b61112886828701611020565b92505060406111398682870161104a565b9150509250925092565b60006020828403121561115557600080fd5b60006111638482850161104a565b91505092915050565b6000806040838503121561117f57600080fd5b600061118d8582860161104a565b925050602061119e8582860161100b565b9150509250929050565b60006111b483836114f6565b60208301905092915050565b6111c981611847565b82525050565b6111d881611835565b82525050565b60006111e9826117bc565b6111f381856117df565b93506111fe836117ac565b8060005b8381101561122f57815161121688826111a8565b9750611221836117d2565b925050600181019050611202565b5085935050505092915050565b61124581611859565b82525050565b6000611256826117c7565b61126081856117f0565b935061127081856020860161189e565b611279816119d9565b840191505092915050565b6000611291600f836117f0565b91507f496e76616c6964206164647265737300000000000000000000000000000000006000830152602082019050919050565b60006112d1601c836117f0565b91507f596f752063616e6e6f742062757920796f7572206f776e206974656d000000006000830152602082019050919050565b60006113116021836117f0565b91507f4e6f7420656e6f7567682066756e647320746f2070757263686173652069746560008301527f6d000000000000000000000000000000000000000000000000000000000000006020830152604082019050919050565b60006113776014836117f0565b91507f4974656d20697320616c726561647920736f6c640000000000000000000000006000830152602082019050919050565b60006113b76022836117f0565b91507f596f7520617265206e6f7420746865206f776e6572206f66207468697320697460008301527f656d0000000000000000000000000000000000000000000000000000000000006020830152604082019050919050565b600061141d6024836117f0565b91507f596f752063616e6e6f74207472616e73666572206974656d20746f20796f757260008301527f73656c66000000000000000000000000000000000000000000000000000000006020830152604082019050919050565b60006114836013836117f0565b91507f4974656d20646f6573206e6f74206578697374000000000000000000000000006000830152602082019050919050565b60006114c3601c836117f0565b91507f5072696365206d7573742062652067726561746572207468616e2030000000006000830152602082019050919050565b6114ff81611885565b82525050565b61150e81611885565b82525050565b6000602082019050818103600083015261152e81846111de565b905092915050565b6000602082019050818103600083015261154f81611284565b9050919050565b6000602082019050818103600083015261156f816112c4565b9050919050565b6000602082019050818103600083015261158f81611304565b9050919050565b600060208201905081810360008301526115af8161136a565b9050919050565b600060208201905081810360008301526115cf816113aa565b9050919050565b600060208201905081810360008301526115ef81611410565b9050919050565b6000602082019050818103600083015261160f81611476565b9050919050565b6000602082019050818103600083015261162f816114b6565b9050919050565b600060208201905061164b6000830184611505565b92915050565b600060e082019050611666600083018a611505565b61167360208301896111cf565b61168060408301886111c0565b8181036060830152611692818761124b565b905081810360808301526116a6818661124b565b90506116b560a0830185611505565b6116c260c083018461123c565b98975050505050505050565b600060e0820190506116e3600083018a611505565b6116f060208301896111cf565b6116fd60408301886111cf565b818103606083015261170f818761124b565b90508181036080830152611723818661124b565b905061173260a0830185611505565b61173f60c083018461123c565b98975050505050505050565b6000604051905081810181811067ffffffffffffffff82111715611772576117716119aa565b5b8060405250919050565b600067ffffffffffffffff821115611797576117966119aa565b5b601f19601f8301169050602081019050919050565b6000819050602082019050919050565b600081519050919050565b600081519050919050565b6000602082019050919050565b600082825260208201905092915050565b600082825260208201905092915050565b600061180c82611885565b915061181783611885565b92508282101561182a5761182961194c565b5b828203905092915050565b600061184082611865565b9050919050565b600061185282611865565b9050919050565b60008115159050919050565b600073ffffffffffffffffffffffffffffffffffffffff82169050919050565b6000819050919050565b82818337600083830152505050565b60005b838110156118bc5780820151818401526020810190506118a1565b838111156118cb576000848401525b50505050565b600060028204905060018216806118e957607f821691505b602082108114156118fd576118fc61197b565b5b50919050565b600061190e82611885565b91507fffffffffffffffffffffffffffffffffffffffffffffffffffffffffffffffff8214156119415761194061194c565b5b600182019050919050565b7f4e487b7100000000000000000000000000000000000000000000000000000000600052601160045260246000fd5b7f4e487b7100000000000000000000000000000000000000000000000000000000600052602260045260246000fd5b7f4e487b7100000000000000000000000000000000000000000000000000000000600052604160045260246000fd5b6000601f19601f8301169050919050565b6119f381611835565b81146119fe57600080fd5b50565b611a0a81611885565b8114611a1557600080fd5b5056fea2646970667358221220ddf1c90339bd53c5035ab084b4b2e1f0af9c8d1aebd2bbe36eff126d967093d964736f6c63430008000033",
  "immutableReferences": {},
  "source": "// SPDX-License-Identifier: MIT\r\n\r\npragma solidity ^0.8.0;\r\n\r\ncontract Market {\r\n    struct Item {\r\n        uint id;\r\n        address owner;\r\n        address payable buyer;\r\n        string name;\r\n        string description;\r\n        uint price;\r\n        bool sold;\r\n    }\r\n\r\n    uint public itemCount = 0;\r\n    mapping(uint => Item) public items;\r\n    mapping(address => uint[]) public ownedItems;\r\n\r\n    function listItem(\r\n        string memory _name,\r\n        string memory _description,\r\n        uint _price\r\n    ) public {\r\n        require(_price > 0, \"Price must be greater than 0\");\r\n        itemCount++;\r\n        items[itemCount] = Item(\r\n            itemCount,\r\n            msg.sender,\r\n            payable(msg.sender),\r\n            _name,\r\n            _description,\r\n            _price,\r\n            false\r\n        );\r\n        ownedItems[msg.sender].push(itemCount);\r\n    }\r\n\r\n    function _transferOwnership(\r\n        uint _id,\r\n        address _oldOwner,\r\n        address _newOwner\r\n    ) internal {\r\n        Item storage item = items[_id];\r\n        item.owner = _newOwner;\r\n\r\n        uint[] storage fromItems = ownedItems[_oldOwner];\r\n        for (uint i = 0; i < fromItems.length; i++) {\r\n            if (fromItems[i] == _id) {\r\n                fromItems[i] = fromItems[fromItems.length - 1];\r\n                fromItems.pop();\r\n                break;\r\n            }\r\n        }\r\n        ownedItems[_newOwner].push(_id);\r\n    }\r\n\r\n    function _transferItem(uint _id, address _newOwner) public {\r\n        Item storage _item = items[_id];\r\n        require(_item.id > 0 && _item.id <= itemCount, \"Item does not exist\");\r\n        require(\r\n            msg.sender == _item.owner,\r\n            \"You are not the owner of this item\"\r\n        );\r\n        require(_newOwner != address(0), \"Invalid address\");\r\n        require(\r\n            _newOwner != msg.sender,\r\n            \"You cannot transfer item to yourself\"\r\n        );\r\n\r\n        _transferOwnership(_id, msg.sender, _newOwner);\r\n    }\r\n\r\n    function getItem(\r\n        uint _id\r\n    )\r\n        public\r\n        view\r\n        returns (\r\n            uint,\r\n            address,\r\n            address,\r\n            string memory,\r\n            string memory,\r\n            uint,\r\n            bool\r\n        )\r\n    {\r\n        Item storage _item = items[_id];\r\n        return (\r\n            _item.id,\r\n            _item.owner,\r\n            _item.buyer,\r\n            _item.name,\r\n            _item.description,\r\n            _item.price,\r\n            _item.sold\r\n        );\r\n    }\r\n\r\n    function buyItem(uint _id) public payable {\r\n        Item storage item = items[_id];\r\n        require(_id > 0 && _id <= itemCount, \"Item does not exist\");\r\n        require(!item.sold, \"Item is already sold\");\r\n        require(msg.value == item.price, \"Not enough funds to purchase item\");\r\n        require(msg.sender != item.buyer, \"You cannot buy your own item\");\r\n\r\n        item.sold = true;\r\n        item.buyer.transfer(msg.value);\r\n\r\n        _transferOwnership(_id, item.buyer, msg.sender);\r\n    }\r\n\r\n    function getOwnedItems(address _owner) public view returns (uint[] memory) {\r\n        return ownedItems[_owner];\r\n    }\r\n}\r\n",
  "sourcePath": "C:\\Users\\Lenovo\\Desktop\\marketplace\\contracts\\Market.sol",
  "compiler": {
    "name": "solc",
    "version": "0.8.0+commit.c7dfd78e.Emscripten.clang"
  },
  "schemaVersion": "3.4.16",
  "updatedAt": "2025-02-15T00:08:40.330Z",
  "networkType": "ethereum",
  "devdoc": {
    "kind": "dev",
    "methods": {},
    "version": 1
  },
  "userdoc": {
    "kind": "user",
    "methods": {},
    "version": 1
  }
}